{
  "_format": "hh-sol-artifact-1",
  "contractName": "BasicNft",
  "sourceName": "contracts/NFT.sol",
  "abi": [
    {
      "inputs": [
        {
          "internalType": "string",
          "name": "CollectionName",
          "type": "string"
        },
        {
          "internalType": "string",
          "name": "Sigle",
          "type": "string"
        },
        {
          "internalType": "uint96",
          "name": "_royaltyFeesInBips",
          "type": "uint96"
        }
      ],
      "stateMutability": "payable",
      "type": "constructor"
    },
    {
      "anonymous": false,
      "inputs": [
        {
          "indexed": true,
          "internalType": "address",
          "name": "owner",
          "type": "address"
        },
        {
          "indexed": true,
          "internalType": "address",
          "name": "approved",
          "type": "address"
        },
        {
          "indexed": true,
          "internalType": "uint256",
          "name": "tokenId",
          "type": "uint256"
        }
      ],
      "name": "Approval",
      "type": "event"
    },
    {
      "anonymous": false,
      "inputs": [
        {
          "indexed": true,
          "internalType": "address",
          "name": "owner",
          "type": "address"
        },
        {
          "indexed": true,
          "internalType": "address",
          "name": "operator",
          "type": "address"
        },
        {
          "indexed": false,
          "internalType": "bool",
          "name": "approved",
          "type": "bool"
        }
      ],
      "name": "ApprovalForAll",
      "type": "event"
    },
    {
      "anonymous": false,
      "inputs": [
        {
          "indexed": true,
          "internalType": "contract IERC20",
          "name": "token",
          "type": "address"
        },
        {
          "indexed": false,
          "internalType": "address",
          "name": "to",
          "type": "address"
        },
        {
          "indexed": false,
          "internalType": "uint256",
          "name": "amount",
          "type": "uint256"
        }
      ],
      "name": "ERC20PaymentReleased",
      "type": "event"
    },
    {
      "anonymous": false,
      "inputs": [
        {
          "indexed": true,
          "internalType": "address",
          "name": "previousOwner",
          "type": "address"
        },
        {
          "indexed": true,
          "internalType": "address",
          "name": "newOwner",
          "type": "address"
        }
      ],
      "name": "OwnershipTransferred",
      "type": "event"
    },
    {
      "anonymous": false,
      "inputs": [
        {
          "indexed": false,
          "internalType": "address",
          "name": "account",
          "type": "address"
        },
        {
          "indexed": false,
          "internalType": "uint256",
          "name": "shares",
          "type": "uint256"
        }
      ],
      "name": "PayeeAdded",
      "type": "event"
    },
    {
      "anonymous": false,
      "inputs": [
        {
          "indexed": false,
          "internalType": "address",
          "name": "from",
          "type": "address"
        },
        {
          "indexed": false,
          "internalType": "uint256",
          "name": "amount",
          "type": "uint256"
        }
      ],
      "name": "PaymentReceived",
      "type": "event"
    },
    {
      "anonymous": false,
      "inputs": [
        {
          "indexed": false,
          "internalType": "address",
          "name": "to",
          "type": "address"
        },
        {
          "indexed": false,
          "internalType": "uint256",
          "name": "amount",
          "type": "uint256"
        }
      ],
      "name": "PaymentReleased",
      "type": "event"
    },
    {
      "anonymous": false,
      "inputs": [
        {
          "indexed": true,
          "internalType": "address",
          "name": "from",
          "type": "address"
        },
        {
          "indexed": true,
          "internalType": "address",
          "name": "to",
          "type": "address"
        },
        {
          "indexed": true,
          "internalType": "uint256",
          "name": "tokenId",
          "type": "uint256"
        }
      ],
      "name": "Transfer",
      "type": "event"
    },
    {
      "inputs": [
        {
          "internalType": "uint256",
          "name": "",
          "type": "uint256"
        }
      ],
      "name": "AllowedCrypto",
      "outputs": [
        {
          "internalType": "contract IERC20",
          "name": "paytoken",
          "type": "address"
        },
        {
          "internalType": "uint256",
          "name": "costvalue",
          "type": "uint256"
        }
      ],
      "stateMutability": "view",
      "type": "function"
    },
    {
      "inputs": [
        {
          "internalType": "contract IERC20",
          "name": "_paytoken",
          "type": "address"
        },
        {
          "internalType": "uint256",
          "name": "_costvalue",
          "type": "uint256"
        }
      ],
      "name": "addCurrency",
      "outputs": [],
      "stateMutability": "nonpayable",
      "type": "function"
    },
    {
      "inputs": [
        {
          "internalType": "address",
          "name": "to",
          "type": "address"
        },
        {
          "internalType": "uint256",
          "name": "tokenId",
          "type": "uint256"
        }
      ],
      "name": "approve",
      "outputs": [],
      "stateMutability": "nonpayable",
      "type": "function"
    },
    {
      "inputs": [
        {
          "internalType": "address",
          "name": "owner",
          "type": "address"
        }
      ],
      "name": "balanceOf",
      "outputs": [
        {
          "internalType": "uint256",
          "name": "",
          "type": "uint256"
        }
      ],
      "stateMutability": "view",
      "type": "function"
    },
    {
      "inputs": [],
      "name": "contractURI",
      "outputs": [
        {
          "internalType": "string",
          "name": "",
          "type": "string"
        }
      ],
      "stateMutability": "pure",
      "type": "function"
    },
    {
      "inputs": [],
      "name": "getAddress",
      "outputs": [
        {
          "internalType": "address",
          "name": "",
          "type": "address"
        }
      ],
      "stateMutability": "view",
      "type": "function"
    },
    {
      "inputs": [
        {
          "internalType": "uint256",
          "name": "tokenId",
          "type": "uint256"
        }
      ],
      "name": "getApproved",
      "outputs": [
        {
          "internalType": "address",
          "name": "",
          "type": "address"
        }
      ],
      "stateMutability": "view",
      "type": "function"
    },
    {
      "inputs": [
        {
          "internalType": "uint256",
          "name": "_tokenId",
          "type": "uint256"
        }
      ],
      "name": "getHistoricalOwners",
      "outputs": [
        {
          "internalType": "uint256",
          "name": "",
          "type": "uint256"
        }
      ],
      "stateMutability": "view",
      "type": "function"
    },
    {
      "inputs": [],
      "name": "getTokenCounter",
      "outputs": [
        {
          "internalType": "uint256",
          "name": "",
          "type": "uint256"
        }
      ],
      "stateMutability": "view",
      "type": "function"
    },
    {
      "inputs": [
        {
          "internalType": "uint256",
          "name": "_tokenId",
          "type": "uint256"
        }
      ],
      "name": "getTokenURI",
      "outputs": [
        {
          "internalType": "string",
          "name": "",
          "type": "string"
        }
      ],
      "stateMutability": "view",
      "type": "function"
    },
    {
      "inputs": [
        {
          "internalType": "address",
          "name": "owner",
          "type": "address"
        },
        {
          "internalType": "address",
          "name": "operator",
          "type": "address"
        }
      ],
      "name": "isApprovedForAll",
      "outputs": [
        {
          "internalType": "bool",
          "name": "",
          "type": "bool"
        }
      ],
      "stateMutability": "view",
      "type": "function"
    },
    {
      "inputs": [],
      "name": "mint",
      "outputs": [],
      "stateMutability": "nonpayable",
      "type": "function"
    },
    {
      "inputs": [
        {
          "internalType": "uint256",
          "name": "_pid",
          "type": "uint256"
        }
      ],
      "name": "mintNft",
      "outputs": [],
      "stateMutability": "payable",
      "type": "function"
    },
    {
      "inputs": [],
      "name": "name",
      "outputs": [
        {
          "internalType": "string",
          "name": "",
          "type": "string"
        }
      ],
      "stateMutability": "view",
      "type": "function"
    },
    {
      "inputs": [],
      "name": "owner",
      "outputs": [
        {
          "internalType": "address",
          "name": "",
          "type": "address"
        }
      ],
      "stateMutability": "view",
      "type": "function"
    },
    {
      "inputs": [
        {
          "internalType": "uint256",
          "name": "tokenId",
          "type": "uint256"
        }
      ],
      "name": "ownerOf",
      "outputs": [
        {
          "internalType": "address",
          "name": "",
          "type": "address"
        }
      ],
      "stateMutability": "view",
      "type": "function"
    },
    {
      "inputs": [
        {
          "internalType": "bool",
          "name": "_state",
          "type": "bool"
        }
      ],
      "name": "pause",
      "outputs": [],
      "stateMutability": "nonpayable",
      "type": "function"
    },
    {
      "inputs": [],
      "name": "paused",
      "outputs": [
        {
          "internalType": "bool",
          "name": "",
          "type": "bool"
        }
      ],
      "stateMutability": "view",
      "type": "function"
    },
    {
      "inputs": [
        {
          "internalType": "uint256",
          "name": "index",
          "type": "uint256"
        }
      ],
      "name": "payee",
      "outputs": [
        {
          "internalType": "address",
          "name": "",
          "type": "address"
        }
      ],
      "stateMutability": "view",
      "type": "function"
    },
    {
      "inputs": [
        {
          "internalType": "address",
          "name": "account",
          "type": "address"
        }
      ],
      "name": "releasable",
      "outputs": [
        {
          "internalType": "uint256",
          "name": "",
          "type": "uint256"
        }
      ],
      "stateMutability": "view",
      "type": "function"
    },
    {
      "inputs": [
        {
          "internalType": "contract IERC20",
          "name": "token",
          "type": "address"
        },
        {
          "internalType": "address",
          "name": "account",
          "type": "address"
        }
      ],
      "name": "releasable",
      "outputs": [
        {
          "internalType": "uint256",
          "name": "",
          "type": "uint256"
        }
      ],
      "stateMutability": "view",
      "type": "function"
    },
    {
      "inputs": [
        {
          "internalType": "address payable",
          "name": "account",
          "type": "address"
        }
      ],
      "name": "release",
      "outputs": [],
      "stateMutability": "nonpayable",
      "type": "function"
    },
    {
      "inputs": [
        {
          "internalType": "contract IERC20",
          "name": "token",
          "type": "address"
        },
        {
          "internalType": "address",
          "name": "account",
          "type": "address"
        }
      ],
      "name": "release",
      "outputs": [],
      "stateMutability": "nonpayable",
      "type": "function"
    },
    {
      "inputs": [
        {
          "internalType": "contract IERC20",
          "name": "token",
          "type": "address"
        },
        {
          "internalType": "address",
          "name": "account",
          "type": "address"
        }
      ],
      "name": "released",
      "outputs": [
        {
          "internalType": "uint256",
          "name": "",
          "type": "uint256"
        }
      ],
      "stateMutability": "view",
      "type": "function"
    },
    {
      "inputs": [
        {
          "internalType": "address",
          "name": "account",
          "type": "address"
        }
      ],
      "name": "released",
      "outputs": [
        {
          "internalType": "uint256",
          "name": "",
          "type": "uint256"
        }
      ],
      "stateMutability": "view",
      "type": "function"
    },
    {
      "inputs": [
        {
          "internalType": "uint256",
          "name": "Index",
          "type": "uint256"
        }
      ],
      "name": "removeCurrency",
      "outputs": [],
      "stateMutability": "nonpayable",
      "type": "function"
    },
    {
      "inputs": [],
      "name": "renounceOwnership",
      "outputs": [],
      "stateMutability": "nonpayable",
      "type": "function"
    },
    {
      "inputs": [
        {
          "internalType": "uint256",
          "name": "_tokenId",
          "type": "uint256"
        },
        {
          "internalType": "uint256",
          "name": "_salePrice",
          "type": "uint256"
        }
      ],
      "name": "royaltyInfo",
      "outputs": [
        {
          "internalType": "address",
          "name": "",
          "type": "address"
        },
        {
          "internalType": "uint256",
          "name": "",
          "type": "uint256"
        }
      ],
      "stateMutability": "view",
      "type": "function"
    },
    {
      "inputs": [
        {
          "internalType": "address",
          "name": "from",
          "type": "address"
        },
        {
          "internalType": "address",
          "name": "to",
          "type": "address"
        },
        {
          "internalType": "uint256",
          "name": "tokenId",
          "type": "uint256"
        }
      ],
      "name": "safeTransferFrom",
      "outputs": [],
      "stateMutability": "nonpayable",
      "type": "function"
    },
    {
      "inputs": [
        {
          "internalType": "address",
          "name": "_from",
          "type": "address"
        },
        {
          "internalType": "address",
          "name": "_to",
          "type": "address"
        },
        {
          "internalType": "uint256",
          "name": "_tokenId",
          "type": "uint256"
        },
        {
          "internalType": "bytes",
          "name": "_data",
          "type": "bytes"
        }
      ],
      "name": "safeTransferFrom",
      "outputs": [],
      "stateMutability": "nonpayable",
      "type": "function"
    },
    {
      "inputs": [
        {
          "internalType": "address",
          "name": "operator",
          "type": "address"
        },
        {
          "internalType": "bool",
          "name": "approved",
          "type": "bool"
        }
      ],
      "name": "setApprovalForAll",
      "outputs": [],
      "stateMutability": "nonpayable",
      "type": "function"
    },
    {
      "inputs": [
        {
          "internalType": "address",
          "name": "_receiver",
          "type": "address"
        },
        {
          "internalType": "uint96",
          "name": "_royaltyFeesInBips",
          "type": "uint96"
        }
      ],
      "name": "setRoyaltyInfo",
      "outputs": [],
      "stateMutability": "nonpayable",
      "type": "function"
    },
    {
      "inputs": [
        {
          "internalType": "address",
          "name": "account",
          "type": "address"
        }
      ],
      "name": "shares",
      "outputs": [
        {
          "internalType": "uint256",
          "name": "",
          "type": "uint256"
        }
      ],
      "stateMutability": "view",
      "type": "function"
    },
    {
      "inputs": [
        {
          "internalType": "bytes4",
          "name": "interfaceId",
          "type": "bytes4"
        }
      ],
      "name": "supportsInterface",
      "outputs": [
        {
          "internalType": "bool",
          "name": "",
          "type": "bool"
        }
      ],
      "stateMutability": "view",
      "type": "function"
    },
    {
      "inputs": [],
      "name": "symbol",
      "outputs": [
        {
          "internalType": "string",
          "name": "",
          "type": "string"
        }
      ],
      "stateMutability": "view",
      "type": "function"
    },
    {
      "inputs": [
        {
          "internalType": "uint256",
          "name": "_tokenId",
          "type": "uint256"
        }
      ],
      "name": "tokenURI",
      "outputs": [
        {
          "internalType": "string",
          "name": "",
          "type": "string"
        }
      ],
      "stateMutability": "view",
      "type": "function"
    },
    {
      "inputs": [
        {
          "internalType": "contract IERC20",
          "name": "token",
          "type": "address"
        }
      ],
      "name": "totalReleased",
      "outputs": [
        {
          "internalType": "uint256",
          "name": "",
          "type": "uint256"
        }
      ],
      "stateMutability": "view",
      "type": "function"
    },
    {
      "inputs": [],
      "name": "totalReleased",
      "outputs": [
        {
          "internalType": "uint256",
          "name": "",
          "type": "uint256"
        }
      ],
      "stateMutability": "view",
      "type": "function"
    },
    {
      "inputs": [],
      "name": "totalShares",
      "outputs": [
        {
          "internalType": "uint256",
          "name": "",
          "type": "uint256"
        }
      ],
      "stateMutability": "view",
      "type": "function"
    },
    {
      "inputs": [
        {
          "internalType": "address",
          "name": "_from",
          "type": "address"
        },
        {
          "internalType": "address",
          "name": "_to",
          "type": "address"
        },
        {
          "internalType": "uint256",
          "name": "_tokenId",
          "type": "uint256"
        }
      ],
      "name": "transferFrom",
      "outputs": [],
      "stateMutability": "nonpayable",
      "type": "function"
    },
    {
      "inputs": [
        {
          "internalType": "address",
          "name": "newOwner",
          "type": "address"
        }
      ],
      "name": "transferOwnership",
      "outputs": [],
      "stateMutability": "nonpayable",
      "type": "function"
    },
    {
      "stateMutability": "payable",
      "type": "receive"
    }
  ],
  "bytecode": "0x6080604052604051806040016040528073dd870fa1b7c4700f2bd7f44238821c26f739214873ffffffffffffffffffffffffffffffffffffffff1673ffffffffffffffffffffffffffffffffffffffff1681526020013373ffffffffffffffffffffffffffffffffffffffff1673ffffffffffffffffffffffffffffffffffffffff168152506012906002620000979291906200090c565b506040518060400160405280603260ff168152602001603260ff168152506013906002620000c79291906200099b565b506000601560006101000a81548160ff0219169083151502179055506040516200686938038062006869833981810160405281019062000108919062000bed565b60128054806020026020016040519081016040528092919081815260200182805480156200018c57602002820191906000526020600020905b8160009054906101000a900473ffffffffffffffffffffffffffffffffffffffff1673ffffffffffffffffffffffffffffffffffffffff168152602001906001019080831162000141575b50505050506013805480602002602001604051908101604052809291908181526020018280548015620001df57602002820191906000526020600020905b815481526020019060010190808311620001ca575b505050505084848160029081620001f7919062000ed2565b50806003908162000209919062000ed2565b5050506200022c620002206200034f60201b60201c565b6200035760201b60201c565b805182511462000273576040517f08c379a00000000000000000000000000000000000000000000000000000000081526004016200026a9062001040565b60405180910390fd5b6000825111620002ba576040517f08c379a0000000000000000000000000000000000000000000000000000000008152600401620002b190620010b2565b60405180910390fd5b60005b8251811015620003295762000313838281518110620002e157620002e0620010d4565b5b6020026020010151838381518110620002ff57620002fe620010d4565b5b60200260200101516200041d60201b60201c565b8080620003209062001132565b915050620002bd565b50505060006010819055506200034633826200065660201b60201c565b505050620014e9565b600033905090565b6000600860009054906101000a900473ffffffffffffffffffffffffffffffffffffffff16905081600860006101000a81548173ffffffffffffffffffffffffffffffffffffffff021916908373ffffffffffffffffffffffffffffffffffffffff1602179055508173ffffffffffffffffffffffffffffffffffffffff168173ffffffffffffffffffffffffffffffffffffffff167f8be0079c531659141344cd1fd0a4f28419497f9722a3daafe3b4186f6b6457e060405160405180910390a35050565b600073ffffffffffffffffffffffffffffffffffffffff168273ffffffffffffffffffffffffffffffffffffffff16036200048f576040517f08c379a00000000000000000000000000000000000000000000000000000000081526004016200048690620011f5565b60405180910390fd5b60008111620004d5576040517f08c379a0000000000000000000000000000000000000000000000000000000008152600401620004cc9062001267565b60405180910390fd5b6000600b60008473ffffffffffffffffffffffffffffffffffffffff1673ffffffffffffffffffffffffffffffffffffffff16815260200190815260200160002054146200055a576040517f08c379a00000000000000000000000000000000000000000000000000000000081526004016200055190620012ff565b60405180910390fd5b600d829080600181540180825580915050600190039060005260206000200160009091909190916101000a81548173ffffffffffffffffffffffffffffffffffffffff021916908373ffffffffffffffffffffffffffffffffffffffff16021790555080600b60008473ffffffffffffffffffffffffffffffffffffffff1673ffffffffffffffffffffffffffffffffffffffff168152602001908152602001600020819055508060095462000611919062001321565b6009819055507f40c340f65e17194d14ddddb073d3c9f888e3cb52b5aae0c6c7706b4fbc905fac82826040516200064a929190620013b2565b60405180910390a15050565b60126000815481106200066e576200066d620010d4565b5b9060005260206000200160009054906101000a900473ffffffffffffffffffffffffffffffffffffffff1673ffffffffffffffffffffffffffffffffffffffff163373ffffffffffffffffffffffffffffffffffffffff1614806200074057506012600181548110620006e657620006e5620010d4565b5b9060005260206000200160009054906101000a900473ffffffffffffffffffffffffffffffffffffffff1673ffffffffffffffffffffffffffffffffffffffff163373ffffffffffffffffffffffffffffffffffffffff16145b6200074a57600080fd5b6200075c82826200076060201b60201c565b5050565b620007706200090260201b60201c565b6bffffffffffffffffffffffff16816bffffffffffffffffffffffff161115620007d1576040517f08c379a0000000000000000000000000000000000000000000000000000000008152600401620007c89062001455565b60405180910390fd5b600073ffffffffffffffffffffffffffffffffffffffff168273ffffffffffffffffffffffffffffffffffffffff160362000843576040517f08c379a00000000000000000000000000000000000000000000000000000000081526004016200083a90620014c7565b60405180910390fd5b60405180604001604052808373ffffffffffffffffffffffffffffffffffffffff168152602001826bffffffffffffffffffffffff168152506000808201518160000160006101000a81548173ffffffffffffffffffffffffffffffffffffffff021916908373ffffffffffffffffffffffffffffffffffffffff16021790555060208201518160000160146101000a8154816bffffffffffffffffffffffff02191690836bffffffffffffffffffffffff1602179055509050505050565b6000612710905090565b82805482825590600052602060002090810192821562000988579160200282015b82811115620009875782518260006101000a81548173ffffffffffffffffffffffffffffffffffffffff021916908373ffffffffffffffffffffffffffffffffffffffff160217905550916020019190600101906200092d565b5b509050620009979190620009f2565b5090565b828054828255906000526020600020908101928215620009df579160200282015b82811115620009de578251829060ff16905591602001919060010190620009bc565b5b509050620009ee9190620009f2565b5090565b5b8082111562000a0d576000816000905550600101620009f3565b5090565b6000604051905090565b600080fd5b600080fd5b600080fd5b600080fd5b6000601f19601f8301169050919050565b7f4e487b7100000000000000000000000000000000000000000000000000000000600052604160045260246000fd5b62000a7a8262000a2f565b810181811067ffffffffffffffff8211171562000a9c5762000a9b62000a40565b5b80604052505050565b600062000ab162000a11565b905062000abf828262000a6f565b919050565b600067ffffffffffffffff82111562000ae25762000ae162000a40565b5b62000aed8262000a2f565b9050602081019050919050565b60005b8381101562000b1a57808201518184015260208101905062000afd565b60008484015250505050565b600062000b3d62000b378462000ac4565b62000aa5565b90508281526020810184848401111562000b5c5762000b5b62000a2a565b5b62000b6984828562000afa565b509392505050565b600082601f83011262000b895762000b8862000a25565b5b815162000b9b84826020860162000b26565b91505092915050565b60006bffffffffffffffffffffffff82169050919050565b62000bc78162000ba4565b811462000bd357600080fd5b50565b60008151905062000be78162000bbc565b92915050565b60008060006060848603121562000c095762000c0862000a1b565b5b600084015167ffffffffffffffff81111562000c2a5762000c2962000a20565b5b62000c388682870162000b71565b935050602084015167ffffffffffffffff81111562000c5c5762000c5b62000a20565b5b62000c6a8682870162000b71565b925050604062000c7d8682870162000bd6565b9150509250925092565b600081519050919050565b7f4e487b7100000000000000000000000000000000000000000000000000000000600052602260045260246000fd5b6000600282049050600182168062000cda57607f821691505b60208210810362000cf05762000cef62000c92565b5b50919050565b60008190508160005260206000209050919050565b60006020601f8301049050919050565b600082821b905092915050565b60006008830262000d5a7fffffffffffffffffffffffffffffffffffffffffffffffffffffffffffffffff8262000d1b565b62000d66868362000d1b565b95508019841693508086168417925050509392505050565b6000819050919050565b6000819050919050565b600062000db362000dad62000da78462000d7e565b62000d88565b62000d7e565b9050919050565b6000819050919050565b62000dcf8362000d92565b62000de762000dde8262000dba565b84845462000d28565b825550505050565b600090565b62000dfe62000def565b62000e0b81848462000dc4565b505050565b5b8181101562000e335762000e2760008262000df4565b60018101905062000e11565b5050565b601f82111562000e825762000e4c8162000cf6565b62000e578462000d0b565b8101602085101562000e67578190505b62000e7f62000e768562000d0b565b83018262000e10565b50505b505050565b600082821c905092915050565b600062000ea76000198460080262000e87565b1980831691505092915050565b600062000ec2838362000e94565b9150826002028217905092915050565b62000edd8262000c87565b67ffffffffffffffff81111562000ef95762000ef862000a40565b5b62000f05825462000cc1565b62000f1282828562000e37565b600060209050601f83116001811462000f4a576000841562000f35578287015190505b62000f41858262000eb4565b86555062000fb1565b601f19841662000f5a8662000cf6565b60005b8281101562000f845784890151825560018201915060208501945060208101905062000f5d565b8683101562000fa4578489015162000fa0601f89168262000e94565b8355505b6001600288020188555050505b505050505050565b600082825260208201905092915050565b7f5061796d656e7453706c69747465723a2070617965657320616e64207368617260008201527f6573206c656e677468206d69736d617463680000000000000000000000000000602082015250565b60006200102860328362000fb9565b9150620010358262000fca565b604082019050919050565b600060208201905081810360008301526200105b8162001019565b9050919050565b7f5061796d656e7453706c69747465723a206e6f20706179656573000000000000600082015250565b60006200109a601a8362000fb9565b9150620010a78262001062565b602082019050919050565b60006020820190508181036000830152620010cd816200108b565b9050919050565b7f4e487b7100000000000000000000000000000000000000000000000000000000600052603260045260246000fd5b7f4e487b7100000000000000000000000000000000000000000000000000000000600052601160045260246000fd5b60006200113f8262000d7e565b91507fffffffffffffffffffffffffffffffffffffffffffffffffffffffffffffffff820362001174576200117362001103565b5b600182019050919050565b7f5061796d656e7453706c69747465723a206163636f756e74206973207468652060008201527f7a65726f20616464726573730000000000000000000000000000000000000000602082015250565b6000620011dd602c8362000fb9565b9150620011ea826200117f565b604082019050919050565b600060208201905081810360008301526200121081620011ce565b9050919050565b7f5061796d656e7453706c69747465723a20736861726573206172652030000000600082015250565b60006200124f601d8362000fb9565b91506200125c8262001217565b602082019050919050565b60006020820190508181036000830152620012828162001240565b9050919050565b7f5061796d656e7453706c69747465723a206163636f756e7420616c726561647960008201527f2068617320736861726573000000000000000000000000000000000000000000602082015250565b6000620012e7602b8362000fb9565b9150620012f48262001289565b604082019050919050565b600060208201905081810360008301526200131a81620012d8565b9050919050565b60006200132e8262000d7e565b91506200133b8362000d7e565b925082820190508082111562001356576200135562001103565b5b92915050565b600073ffffffffffffffffffffffffffffffffffffffff82169050919050565b600062001389826200135c565b9050919050565b6200139b816200137c565b82525050565b620013ac8162000d7e565b82525050565b6000604082019050620013c9600083018562001390565b620013d86020830184620013a1565b9392505050565b7f455243323938313a20726f79616c7479206665652077696c6c2065786365656460008201527f2073616c65507269636500000000000000000000000000000000000000000000602082015250565b60006200143d602a8362000fb9565b91506200144a82620013df565b604082019050919050565b6000602082019050818103600083015262001470816200142e565b9050919050565b7f455243323938313a20696e76616c696420726563656976657200000000000000600082015250565b6000620014af60198362000fb9565b9150620014bc8262001477565b602082019050919050565b60006020820190508181036000830152620014e281620014a0565b9050919050565b61537080620014f96000396000f3fe60806040526004361061024a5760003560e01c8063690e4fc311610139578063b88d4fde116100b6578063d6640ee91161007a578063d6640ee914610928578063d79779b214610965578063e33b7de3146109a2578063e8a3d485146109cd578063e985e9c5146109f8578063f2fde38b14610a3557610291565b8063b88d4fde1461081f578063c45ac05014610848578063c56ae22514610885578063c87b56dd146108ae578063ce7c2ac2146108eb57610291565b80638da5cb5b116100fd5780638da5cb5b1461072657806395d89b41146107515780639852595c1461077c578063a22cb465146107b9578063a3f8eace146107e257610291565b8063690e4fc3146106415780636e02007d1461066a57806370a0823114610695578063715018a6146106d25780638b83209b146106e957610291565b806326c91cad116101c7578063406072a91161018b578063406072a91461054a57806342842e0e1461058757806348b75044146105b05780635c975abb146105d95780636352211e1461060457610291565b806326c91cad1461043b5780632a55205a1461047957806338cc4831146104b75780633a98ef39146104e25780633bb3a24d1461050d57610291565b8063095ea7b31161020e578063095ea7b31461038d5780630d730acc146103b65780631249c58b146103d257806319165587146103e957806323b872dd1461041257610291565b806301ffc9a71461029657806302329a29146102d357806302fa7c47146102fc57806306fdde0314610325578063081812fc1461035057610291565b36610291577f6ef95f06320e7a25a04a175ca677b7052bdd97131872c2192525a629f51be770610278610a5e565b34604051610287929190613826565b60405180910390a1005b600080fd5b3480156102a257600080fd5b506102bd60048036038101906102b891906138bb565b610a66565b6040516102ca9190613903565b60405180910390f35b3480156102df57600080fd5b506102fa60048036038101906102f5919061394a565b610a78565b005b34801561030857600080fd5b50610323600480360381019061031e91906139e7565b610b81565b005b34801561033157600080fd5b5061033a610c7b565b6040516103479190613ab7565b60405180910390f35b34801561035c57600080fd5b5061037760048036038101906103729190613b05565b610d0d565b6040516103849190613b32565b60405180910390f35b34801561039957600080fd5b506103b460048036038101906103af9190613b4d565b610d53565b005b6103d060048036038101906103cb9190613b05565b610e6a565b005b3480156103de57600080fd5b506103e7611105565b005b3480156103f557600080fd5b50610410600480360381019061040b9190613bcb565b611143565b005b34801561041e57600080fd5b5061043960048036038101906104349190613bf8565b6112c2565b005b34801561044757600080fd5b50610462600480360381019061045d9190613b05565b61134b565b604051610470929190613caa565b60405180910390f35b34801561048557600080fd5b506104a0600480360381019061049b9190613cd3565b61139f565b6040516104ae929190613826565b60405180910390f35b3480156104c357600080fd5b506104cc611589565b6040516104d99190613b32565b60405180910390f35b3480156104ee57600080fd5b506104f7611591565b6040516105049190613d13565b60405180910390f35b34801561051957600080fd5b50610534600480360381019061052f9190613b05565b61159b565b6040516105419190613ab7565b60405180910390f35b34801561055657600080fd5b50610571600480360381019061056c9190613d6c565b6115ad565b60405161057e9190613d13565b60405180910390f35b34801561059357600080fd5b506105ae60048036038101906105a99190613bf8565b611634565b005b3480156105bc57600080fd5b506105d760048036038101906105d29190613d6c565b611654565b005b3480156105e557600080fd5b506105ee611867565b6040516105fb9190613903565b60405180910390f35b34801561061057600080fd5b5061062b60048036038101906106269190613b05565b61187a565b6040516106389190613b32565b60405180910390f35b34801561064d57600080fd5b5061066860048036038101906106639190613dac565b611900565b005b34801561067657600080fd5b5061067f611a99565b60405161068c9190613d13565b60405180910390f35b3480156106a157600080fd5b506106bc60048036038101906106b79190613dec565b611aa3565b6040516106c99190613d13565b60405180910390f35b3480156106de57600080fd5b506106e7611b5a565b005b3480156106f557600080fd5b50610710600480360381019061070b9190613b05565b611b6e565b60405161071d9190613b32565b60405180910390f35b34801561073257600080fd5b5061073b611bb6565b6040516107489190613b32565b60405180910390f35b34801561075d57600080fd5b50610766611be0565b6040516107739190613ab7565b60405180910390f35b34801561078857600080fd5b506107a3600480360381019061079e9190613dec565b611c72565b6040516107b09190613d13565b60405180910390f35b3480156107c557600080fd5b506107e060048036038101906107db9190613e19565b611cbb565b005b3480156107ee57600080fd5b5061080960048036038101906108049190613dec565b611cd1565b6040516108169190613d13565b60405180910390f35b34801561082b57600080fd5b5061084660048036038101906108419190613f8e565b611d04565b005b34801561085457600080fd5b5061086f600480360381019061086a9190613d6c565b611d8f565b60405161087c9190613d13565b60405180910390f35b34801561089157600080fd5b506108ac60048036038101906108a79190613b05565b611e3e565b005b3480156108ba57600080fd5b506108d560048036038101906108d09190613b05565b611f81565b6040516108e29190613ab7565b60405180910390f35b3480156108f757600080fd5b50610912600480360381019061090d9190613dec565b612097565b60405161091f9190613d13565b60405180910390f35b34801561093457600080fd5b5061094f600480360381019061094a9190613b05565b6120e0565b60405161095c9190613d13565b60405180910390f35b34801561097157600080fd5b5061098c60048036038101906109879190614011565b6120fd565b6040516109999190613d13565b60405180910390f35b3480156109ae57600080fd5b506109b7612146565b6040516109c49190613d13565b60405180910390f35b3480156109d957600080fd5b506109e2612150565b6040516109ef9190613ab7565b60405180910390f35b348015610a0457600080fd5b50610a1f6004803603810190610a1a919061403e565b612170565b604051610a2c9190613903565b60405180910390f35b348015610a4157600080fd5b50610a5c6004803603810190610a579190613dec565b612204565b005b600033905090565b6000610a7182612287565b9050919050565b6012600081548110610a8d57610a8c61407e565b5b9060005260206000200160009054906101000a900473ffffffffffffffffffffffffffffffffffffffff1673ffffffffffffffffffffffffffffffffffffffff163373ffffffffffffffffffffffffffffffffffffffff161480610b5b57506012600181548110610b0157610b0061407e565b5b9060005260206000200160009054906101000a900473ffffffffffffffffffffffffffffffffffffffff1673ffffffffffffffffffffffffffffffffffffffff163373ffffffffffffffffffffffffffffffffffffffff16145b610b6457600080fd5b80601560006101000a81548160ff02191690831515021790555050565b6012600081548110610b9657610b9561407e565b5b9060005260206000200160009054906101000a900473ffffffffffffffffffffffffffffffffffffffff1673ffffffffffffffffffffffffffffffffffffffff163373ffffffffffffffffffffffffffffffffffffffff161480610c6457506012600181548110610c0a57610c0961407e565b5b9060005260206000200160009054906101000a900473ffffffffffffffffffffffffffffffffffffffff1673ffffffffffffffffffffffffffffffffffffffff163373ffffffffffffffffffffffffffffffffffffffff16145b610c6d57600080fd5b610c778282612369565b5050565b606060028054610c8a906140dc565b80601f0160208091040260200160405190810160405280929190818152602001828054610cb6906140dc565b8015610d035780601f10610cd857610100808354040283529160200191610d03565b820191906000526020600020905b815481529060010190602001808311610ce657829003601f168201915b5050505050905090565b6000610d18826124fd565b6006600083815260200190815260200160002060009054906101000a900473ffffffffffffffffffffffffffffffffffffffff169050919050565b6000610d5e8261187a565b90508073ffffffffffffffffffffffffffffffffffffffff168373ffffffffffffffffffffffffffffffffffffffff1603610dce576040517f08c379a0000000000000000000000000000000000000000000000000000000008152600401610dc59061417f565b60405180910390fd5b8073ffffffffffffffffffffffffffffffffffffffff16610ded610a5e565b73ffffffffffffffffffffffffffffffffffffffff161480610e1c5750610e1b81610e16610a5e565b612170565b5b610e5b576040517f08c379a0000000000000000000000000000000000000000000000000000000008152600401610e5290614211565b60405180910390fd5b610e658383612548565b505050565b601560009054906101000a900460ff1615610eba576040517f08c379a0000000000000000000000000000000000000000000000000000000008152600401610eb1906142a3565b60405180910390fd5b600060118281548110610ed057610ecf61407e565b5b90600052602060002090600202016001015411610f22576040517f08c379a0000000000000000000000000000000000000000000000000000000008152600401610f199061430f565b60405180910390fd5b600060118281548110610f3857610f3761407e565b5b90600052602060002090600202016040518060400160405290816000820160009054906101000a900473ffffffffffffffffffffffffffffffffffffffff1673ffffffffffffffffffffffffffffffffffffffff1673ffffffffffffffffffffffffffffffffffffffff1681526020016001820154815250509050600081600001519050600082602001519050610fcd611bb6565b73ffffffffffffffffffffffffffffffffffffffff163373ffffffffffffffffffffffffffffffffffffffff161461104257803414611041576040517f08c379a0000000000000000000000000000000000000000000000000000000008152600401611038906143a1565b60405180910390fd5b5b8173ffffffffffffffffffffffffffffffffffffffff166323b872dd3330846040518463ffffffff1660e01b815260040161107f939291906143c1565b6020604051808303816000875af115801561109e573d6000803e3d6000fd5b505050506040513d601f19601f820116820180604052508101906110c2919061440d565b5060016010546110d29190614469565b6010819055506110e433601054612601565b60016014600060105481526020019081526020016000208190555050505050565b60016010546111149190614469565b60108190555061112633601054612601565b600160146000601054815260200190815260200160002081905550565b6000600b60008373ffffffffffffffffffffffffffffffffffffffff1673ffffffffffffffffffffffffffffffffffffffff16815260200190815260200160002054116111c5576040517f08c379a00000000000000000000000000000000000000000000000000000000081526004016111bc9061450f565b60405180910390fd5b60006111d082611cd1565b905060008103611215576040517f08c379a000000000000000000000000000000000000000000000000000000000815260040161120c906145a1565b60405180910390fd5b80600a60008282546112279190614469565b9250508190555080600c60008473ffffffffffffffffffffffffffffffffffffffff1673ffffffffffffffffffffffffffffffffffffffff16815260200190815260200160002060008282540192505081905550611285828261261f565b7fdf20fd1e76bc69d672e4814fafb2c449bba3a5369d8359adf9e05e6fde87b05682826040516112b69291906145e2565b60405180910390a15050565b6112d36112cd610a5e565b82612713565b611312576040517f08c379a00000000000000000000000000000000000000000000000000000000081526004016113099061467d565b60405180910390fd5b61131d8383836127a8565b6014600082815260200190815260200160002060008154809291906113419061469d565b9190505550505050565b6011818154811061135b57600080fd5b90600052602060002090600202016000915090508060000160009054906101000a900473ffffffffffffffffffffffffffffffffffffffff16908060010154905082565b6000806000600160008681526020019081526020016000206040518060400160405290816000820160009054906101000a900473ffffffffffffffffffffffffffffffffffffffff1673ffffffffffffffffffffffffffffffffffffffff1673ffffffffffffffffffffffffffffffffffffffff1681526020016000820160149054906101000a90046bffffffffffffffffffffffff166bffffffffffffffffffffffff166bffffffffffffffffffffffff16815250509050600073ffffffffffffffffffffffffffffffffffffffff16816000015173ffffffffffffffffffffffffffffffffffffffff16036115345760006040518060400160405290816000820160009054906101000a900473ffffffffffffffffffffffffffffffffffffffff1673ffffffffffffffffffffffffffffffffffffffff1673ffffffffffffffffffffffffffffffffffffffff1681526020016000820160149054906101000a90046bffffffffffffffffffffffff166bffffffffffffffffffffffff166bffffffffffffffffffffffff168152505090505b600061153e612aa1565b6bffffffffffffffffffffffff1682602001516bffffffffffffffffffffffff168661156a91906146e5565b6115749190614756565b90508160000151819350935050509250929050565b600030905090565b6000600954905090565b60606115a682611f81565b9050919050565b6000600f60008473ffffffffffffffffffffffffffffffffffffffff1673ffffffffffffffffffffffffffffffffffffffff16815260200190815260200160002060008373ffffffffffffffffffffffffffffffffffffffff1673ffffffffffffffffffffffffffffffffffffffff16815260200190815260200160002054905092915050565b61164f83838360405180602001604052806000815250611d04565b505050565b6000600b60008373ffffffffffffffffffffffffffffffffffffffff1673ffffffffffffffffffffffffffffffffffffffff16815260200190815260200160002054116116d6576040517f08c379a00000000000000000000000000000000000000000000000000000000081526004016116cd9061450f565b60405180910390fd5b60006116e28383611d8f565b905060008103611727576040517f08c379a000000000000000000000000000000000000000000000000000000000815260040161171e906145a1565b60405180910390fd5b80600e60008573ffffffffffffffffffffffffffffffffffffffff1673ffffffffffffffffffffffffffffffffffffffff16815260200190815260200160002060008282546117769190614469565b9250508190555080600f60008573ffffffffffffffffffffffffffffffffffffffff1673ffffffffffffffffffffffffffffffffffffffff16815260200190815260200160002060008473ffffffffffffffffffffffffffffffffffffffff1673ffffffffffffffffffffffffffffffffffffffff16815260200190815260200160002060008282540192505081905550611812838383612aab565b8273ffffffffffffffffffffffffffffffffffffffff167f3be5b7a71e84ed12875d241991c70855ac5817d847039e17a9d895c1ceb0f18a838360405161185a929190613826565b60405180910390a2505050565b601560009054906101000a900460ff1681565b60008061188683612b31565b9050600073ffffffffffffffffffffffffffffffffffffffff168173ffffffffffffffffffffffffffffffffffffffff16036118f7576040517f08c379a00000000000000000000000000000000000000000000000000000000081526004016118ee906147d3565b60405180910390fd5b80915050919050565b60126000815481106119155761191461407e565b5b9060005260206000200160009054906101000a900473ffffffffffffffffffffffffffffffffffffffff1673ffffffffffffffffffffffffffffffffffffffff163373ffffffffffffffffffffffffffffffffffffffff1614806119e3575060126001815481106119895761198861407e565b5b9060005260206000200160009054906101000a900473ffffffffffffffffffffffffffffffffffffffff1673ffffffffffffffffffffffffffffffffffffffff163373ffffffffffffffffffffffffffffffffffffffff16145b6119ec57600080fd5b601160405180604001604052808473ffffffffffffffffffffffffffffffffffffffff16815260200183815250908060018154018082558091505060019003906000526020600020906002020160009091909190915060008201518160000160006101000a81548173ffffffffffffffffffffffffffffffffffffffff021916908373ffffffffffffffffffffffffffffffffffffffff1602179055506020820151816001015550505050565b6000601054905090565b60008073ffffffffffffffffffffffffffffffffffffffff168273ffffffffffffffffffffffffffffffffffffffff1603611b13576040517f08c379a0000000000000000000000000000000000000000000000000000000008152600401611b0a90614865565b60405180910390fd5b600560008373ffffffffffffffffffffffffffffffffffffffff1673ffffffffffffffffffffffffffffffffffffffff168152602001908152602001600020549050919050565b611b62612b6e565b611b6c6000612bec565b565b6000600d8281548110611b8457611b8361407e565b5b9060005260206000200160009054906101000a900473ffffffffffffffffffffffffffffffffffffffff169050919050565b6000600860009054906101000a900473ffffffffffffffffffffffffffffffffffffffff16905090565b606060038054611bef906140dc565b80601f0160208091040260200160405190810160405280929190818152602001828054611c1b906140dc565b8015611c685780601f10611c3d57610100808354040283529160200191611c68565b820191906000526020600020905b815481529060010190602001808311611c4b57829003601f168201915b5050505050905090565b6000600c60008373ffffffffffffffffffffffffffffffffffffffff1673ffffffffffffffffffffffffffffffffffffffff168152602001908152602001600020549050919050565b611ccd611cc6610a5e565b8383612cb2565b5050565b600080611cdc612146565b47611ce79190614469565b9050611cfc8382611cf786611c72565b612e1e565b915050919050565b611d15611d0f610a5e565b83612713565b611d54576040517f08c379a0000000000000000000000000000000000000000000000000000000008152600401611d4b9061467d565b60405180910390fd5b611d6084848484612e8c565b601460008381526020019081526020016000206000815480929190611d849061469d565b919050555050505050565b600080611d9b846120fd565b8473ffffffffffffffffffffffffffffffffffffffff166370a08231306040518263ffffffff1660e01b8152600401611dd49190613b32565b602060405180830381865afa158015611df1573d6000803e3d6000fd5b505050506040513d601f19601f82011682018060405250810190611e15919061489a565b611e1f9190614469565b9050611e358382611e3087876115ad565b612e1e565b91505092915050565b6012600081548110611e5357611e5261407e565b5b9060005260206000200160009054906101000a900473ffffffffffffffffffffffffffffffffffffffff1673ffffffffffffffffffffffffffffffffffffffff163373ffffffffffffffffffffffffffffffffffffffff161480611f2157506012600181548110611ec757611ec661407e565b5b9060005260206000200160009054906101000a900473ffffffffffffffffffffffffffffffffffffffff1673ffffffffffffffffffffffffffffffffffffffff163373ffffffffffffffffffffffffffffffffffffffff16145b611f2a57600080fd5b60118181548110611f3e57611f3d61407e565b5b9060005260206000209060020201600080820160006101000a81549073ffffffffffffffffffffffffffffffffffffffff02191690556001820160009055505050565b60606001601460008481526020019081526020016000205411611fbe57604051806080016040528060428152602001615233604291399050612092565b60016014600084815260200190815260200160002054118015611ff557506002601460008481526020019081526020016000205411155b1561201a576040518060800160405280604281526020016151f1604291399050612092565b6002601460008481526020019081526020016000205411801561205157506003601460008481526020019081526020016000205411155b15612076576040518060800160405280604281526020016152f9604291399050612092565b6040518060800160405280604281526020016152b76042913990505b919050565b6000600b60008373ffffffffffffffffffffffffffffffffffffffff1673ffffffffffffffffffffffffffffffffffffffff168152602001908152602001600020549050919050565b600060146000838152602001908152602001600020549050919050565b6000600e60008373ffffffffffffffffffffffffffffffffffffffff1673ffffffffffffffffffffffffffffffffffffffff168152602001908152602001600020549050919050565b6000600a54905090565b606060405180608001604052806042815260200161527560429139905090565b6000600760008473ffffffffffffffffffffffffffffffffffffffff1673ffffffffffffffffffffffffffffffffffffffff16815260200190815260200160002060008373ffffffffffffffffffffffffffffffffffffffff1673ffffffffffffffffffffffffffffffffffffffff16815260200190815260200160002060009054906101000a900460ff16905092915050565b61220c612b6e565b600073ffffffffffffffffffffffffffffffffffffffff168173ffffffffffffffffffffffffffffffffffffffff160361227b576040517f08c379a000000000000000000000000000000000000000000000000000000000815260040161227290614939565b60405180910390fd5b61228481612bec565b50565b60007f80ac58cd000000000000000000000000000000000000000000000000000000007bffffffffffffffffffffffffffffffffffffffffffffffffffffffff1916827bffffffffffffffffffffffffffffffffffffffffffffffffffffffff1916148061235257507f5b5e139f000000000000000000000000000000000000000000000000000000007bffffffffffffffffffffffffffffffffffffffffffffffffffffffff1916827bffffffffffffffffffffffffffffffffffffffffffffffffffffffff1916145b80612362575061236182612ee8565b5b9050919050565b612371612aa1565b6bffffffffffffffffffffffff16816bffffffffffffffffffffffff1611156123cf576040517f08c379a00000000000000000000000000000000000000000000000000000000081526004016123c6906149cb565b60405180910390fd5b600073ffffffffffffffffffffffffffffffffffffffff168273ffffffffffffffffffffffffffffffffffffffff160361243e576040517f08c379a000000000000000000000000000000000000000000000000000000000815260040161243590614a37565b60405180910390fd5b60405180604001604052808373ffffffffffffffffffffffffffffffffffffffff168152602001826bffffffffffffffffffffffff168152506000808201518160000160006101000a81548173ffffffffffffffffffffffffffffffffffffffff021916908373ffffffffffffffffffffffffffffffffffffffff16021790555060208201518160000160146101000a8154816bffffffffffffffffffffffff02191690836bffffffffffffffffffffffff1602179055509050505050565b61250681612f62565b612545576040517f08c379a000000000000000000000000000000000000000000000000000000000815260040161253c906147d3565b60405180910390fd5b50565b816006600083815260200190815260200160002060006101000a81548173ffffffffffffffffffffffffffffffffffffffff021916908373ffffffffffffffffffffffffffffffffffffffff160217905550808273ffffffffffffffffffffffffffffffffffffffff166125bb8361187a565b73ffffffffffffffffffffffffffffffffffffffff167f8c5be1e5ebec7d5bd14f71427d1e84f3dd0314c0f7b2291e5b200ac8c7c3b92560405160405180910390a45050565b61261b828260405180602001604052806000815250612fa3565b5050565b80471015612662576040517f08c379a000000000000000000000000000000000000000000000000000000000815260040161265990614aa3565b60405180910390fd5b60008273ffffffffffffffffffffffffffffffffffffffff168260405161268890614af4565b60006040518083038185875af1925050503d80600081146126c5576040519150601f19603f3d011682016040523d82523d6000602084013e6126ca565b606091505b505090508061270e576040517f08c379a000000000000000000000000000000000000000000000000000000000815260040161270590614b7b565b60405180910390fd5b505050565b60008061271f8361187a565b90508073ffffffffffffffffffffffffffffffffffffffff168473ffffffffffffffffffffffffffffffffffffffff16148061276157506127608185612170565b5b8061279f57508373ffffffffffffffffffffffffffffffffffffffff1661278784610d0d565b73ffffffffffffffffffffffffffffffffffffffff16145b91505092915050565b8273ffffffffffffffffffffffffffffffffffffffff166127c88261187a565b73ffffffffffffffffffffffffffffffffffffffff161461281e576040517f08c379a000000000000000000000000000000000000000000000000000000000815260040161281590614c0d565b60405180910390fd5b600073ffffffffffffffffffffffffffffffffffffffff168273ffffffffffffffffffffffffffffffffffffffff160361288d576040517f08c379a000000000000000000000000000000000000000000000000000000000815260040161288490614c9f565b60405180910390fd5b61289a8383836001612ffe565b8273ffffffffffffffffffffffffffffffffffffffff166128ba8261187a565b73ffffffffffffffffffffffffffffffffffffffff1614612910576040517f08c379a000000000000000000000000000000000000000000000000000000000815260040161290790614c0d565b60405180910390fd5b6006600082815260200190815260200160002060006101000a81549073ffffffffffffffffffffffffffffffffffffffff02191690556001600560008573ffffffffffffffffffffffffffffffffffffffff1673ffffffffffffffffffffffffffffffffffffffff168152602001908152602001600020600082825403925050819055506001600560008473ffffffffffffffffffffffffffffffffffffffff1673ffffffffffffffffffffffffffffffffffffffff16815260200190815260200160002060008282540192505081905550816004600083815260200190815260200160002060006101000a81548173ffffffffffffffffffffffffffffffffffffffff021916908373ffffffffffffffffffffffffffffffffffffffff160217905550808273ffffffffffffffffffffffffffffffffffffffff168473ffffffffffffffffffffffffffffffffffffffff167fddf252ad1be2c89b69c2b068fc378daa952ba7f163c4a11628f55a4df523b3ef60405160405180910390a4612a9c8383836001613124565b505050565b6000612710905090565b612b2c8363a9059cbb60e01b8484604051602401612aca929190613826565b604051602081830303815290604052907bffffffffffffffffffffffffffffffffffffffffffffffffffffffff19166020820180517bffffffffffffffffffffffffffffffffffffffffffffffffffffffff838183161783525050505061312a565b505050565b60006004600083815260200190815260200160002060009054906101000a900473ffffffffffffffffffffffffffffffffffffffff169050919050565b612b76610a5e565b73ffffffffffffffffffffffffffffffffffffffff16612b94611bb6565b73ffffffffffffffffffffffffffffffffffffffff1614612bea576040517f08c379a0000000000000000000000000000000000000000000000000000000008152600401612be190614d0b565b60405180910390fd5b565b6000600860009054906101000a900473ffffffffffffffffffffffffffffffffffffffff16905081600860006101000a81548173ffffffffffffffffffffffffffffffffffffffff021916908373ffffffffffffffffffffffffffffffffffffffff1602179055508173ffffffffffffffffffffffffffffffffffffffff168173ffffffffffffffffffffffffffffffffffffffff167f8be0079c531659141344cd1fd0a4f28419497f9722a3daafe3b4186f6b6457e060405160405180910390a35050565b8173ffffffffffffffffffffffffffffffffffffffff168373ffffffffffffffffffffffffffffffffffffffff1603612d20576040517f08c379a0000000000000000000000000000000000000000000000000000000008152600401612d1790614d77565b60405180910390fd5b80600760008573ffffffffffffffffffffffffffffffffffffffff1673ffffffffffffffffffffffffffffffffffffffff16815260200190815260200160002060008473ffffffffffffffffffffffffffffffffffffffff1673ffffffffffffffffffffffffffffffffffffffff16815260200190815260200160002060006101000a81548160ff0219169083151502179055508173ffffffffffffffffffffffffffffffffffffffff168373ffffffffffffffffffffffffffffffffffffffff167f17307eab39ab6107e8899845ad3d59bd9653f200f220920489ca2b5937696c3183604051612e119190613903565b60405180910390a3505050565b600081600954600b60008773ffffffffffffffffffffffffffffffffffffffff1673ffffffffffffffffffffffffffffffffffffffff1681526020019081526020016000205485612e6f91906146e5565b612e799190614756565b612e839190614d97565b90509392505050565b612e978484846127a8565b612ea3848484846131f1565b612ee2576040517f08c379a0000000000000000000000000000000000000000000000000000000008152600401612ed990614e3d565b60405180910390fd5b50505050565b60007f2a55205a000000000000000000000000000000000000000000000000000000007bffffffffffffffffffffffffffffffffffffffffffffffffffffffff1916827bffffffffffffffffffffffffffffffffffffffffffffffffffffffff19161480612f5b5750612f5a82613378565b5b9050919050565b60008073ffffffffffffffffffffffffffffffffffffffff16612f8483612b31565b73ffffffffffffffffffffffffffffffffffffffff1614159050919050565b612fad83836133e2565b612fba60008484846131f1565b612ff9576040517f08c379a0000000000000000000000000000000000000000000000000000000008152600401612ff090614e3d565b60405180910390fd5b505050565b600181111561311e57600073ffffffffffffffffffffffffffffffffffffffff168473ffffffffffffffffffffffffffffffffffffffff16146130925780600560008673ffffffffffffffffffffffffffffffffffffffff1673ffffffffffffffffffffffffffffffffffffffff168152602001908152602001600020600082825461308a9190614d97565b925050819055505b600073ffffffffffffffffffffffffffffffffffffffff168373ffffffffffffffffffffffffffffffffffffffff161461311d5780600560008573ffffffffffffffffffffffffffffffffffffffff1673ffffffffffffffffffffffffffffffffffffffff16815260200190815260200160002060008282546131159190614469565b925050819055505b5b50505050565b50505050565b600061318c826040518060400160405280602081526020017f5361666545524332303a206c6f772d6c6576656c2063616c6c206661696c65648152508573ffffffffffffffffffffffffffffffffffffffff166135ff9092919063ffffffff16565b90506000815111156131ec57808060200190518101906131ac919061440d565b6131eb576040517f08c379a00000000000000000000000000000000000000000000000000000000081526004016131e290614ecf565b60405180910390fd5b5b505050565b60006132128473ffffffffffffffffffffffffffffffffffffffff16613617565b1561336b578373ffffffffffffffffffffffffffffffffffffffff1663150b7a0261323b610a5e565b8786866040518563ffffffff1660e01b815260040161325d9493929190614f44565b6020604051808303816000875af192505050801561329957506040513d601f19601f820116820180604052508101906132969190614fa5565b60015b61331b573d80600081146132c9576040519150601f19603f3d011682016040523d82523d6000602084013e6132ce565b606091505b506000815103613313576040517f08c379a000000000000000000000000000000000000000000000000000000000815260040161330a90614e3d565b60405180910390fd5b805181602001fd5b63150b7a0260e01b7bffffffffffffffffffffffffffffffffffffffffffffffffffffffff1916817bffffffffffffffffffffffffffffffffffffffffffffffffffffffff191614915050613370565b600190505b949350505050565b60007f01ffc9a7000000000000000000000000000000000000000000000000000000007bffffffffffffffffffffffffffffffffffffffffffffffffffffffff1916827bffffffffffffffffffffffffffffffffffffffffffffffffffffffff1916149050919050565b600073ffffffffffffffffffffffffffffffffffffffff168273ffffffffffffffffffffffffffffffffffffffff1603613451576040517f08c379a00000000000000000000000000000000000000000000000000000000081526004016134489061501e565b60405180910390fd5b61345a81612f62565b1561349a576040517f08c379a00000000000000000000000000000000000000000000000000000000081526004016134919061508a565b60405180910390fd5b6134a8600083836001612ffe565b6134b181612f62565b156134f1576040517f08c379a00000000000000000000000000000000000000000000000000000000081526004016134e89061508a565b60405180910390fd5b6001600560008473ffffffffffffffffffffffffffffffffffffffff1673ffffffffffffffffffffffffffffffffffffffff16815260200190815260200160002060008282540192505081905550816004600083815260200190815260200160002060006101000a81548173ffffffffffffffffffffffffffffffffffffffff021916908373ffffffffffffffffffffffffffffffffffffffff160217905550808273ffffffffffffffffffffffffffffffffffffffff16600073ffffffffffffffffffffffffffffffffffffffff167fddf252ad1be2c89b69c2b068fc378daa952ba7f163c4a11628f55a4df523b3ef60405160405180910390a46135fb600083836001613124565b5050565b606061360e848460008561363a565b90509392505050565b6000808273ffffffffffffffffffffffffffffffffffffffff163b119050919050565b60608247101561367f576040517f08c379a00000000000000000000000000000000000000000000000000000000081526004016136769061511c565b60405180910390fd5b6000808673ffffffffffffffffffffffffffffffffffffffff1685876040516136a8919061516d565b60006040518083038185875af1925050503d80600081146136e5576040519150601f19603f3d011682016040523d82523d6000602084013e6136ea565b606091505b50915091506136fb87838387613707565b92505050949350505050565b606083156137695760008351036137615761372185613617565b613760576040517f08c379a0000000000000000000000000000000000000000000000000000000008152600401613757906151d0565b60405180910390fd5b5b829050613774565b613773838361377c565b5b949350505050565b60008251111561378f5781518083602001fd5b806040517f08c379a00000000000000000000000000000000000000000000000000000000081526004016137c39190613ab7565b60405180910390fd5b600073ffffffffffffffffffffffffffffffffffffffff82169050919050565b60006137f7826137cc565b9050919050565b613807816137ec565b82525050565b6000819050919050565b6138208161380d565b82525050565b600060408201905061383b60008301856137fe565b6138486020830184613817565b9392505050565b6000604051905090565b600080fd5b600080fd5b60007fffffffff0000000000000000000000000000000000000000000000000000000082169050919050565b61389881613863565b81146138a357600080fd5b50565b6000813590506138b58161388f565b92915050565b6000602082840312156138d1576138d0613859565b5b60006138df848285016138a6565b91505092915050565b60008115159050919050565b6138fd816138e8565b82525050565b600060208201905061391860008301846138f4565b92915050565b613927816138e8565b811461393257600080fd5b50565b6000813590506139448161391e565b92915050565b6000602082840312156139605761395f613859565b5b600061396e84828501613935565b91505092915050565b613980816137ec565b811461398b57600080fd5b50565b60008135905061399d81613977565b92915050565b60006bffffffffffffffffffffffff82169050919050565b6139c4816139a3565b81146139cf57600080fd5b50565b6000813590506139e1816139bb565b92915050565b600080604083850312156139fe576139fd613859565b5b6000613a0c8582860161398e565b9250506020613a1d858286016139d2565b9150509250929050565b600081519050919050565b600082825260208201905092915050565b60005b83811015613a61578082015181840152602081019050613a46565b60008484015250505050565b6000601f19601f8301169050919050565b6000613a8982613a27565b613a938185613a32565b9350613aa3818560208601613a43565b613aac81613a6d565b840191505092915050565b60006020820190508181036000830152613ad18184613a7e565b905092915050565b613ae28161380d565b8114613aed57600080fd5b50565b600081359050613aff81613ad9565b92915050565b600060208284031215613b1b57613b1a613859565b5b6000613b2984828501613af0565b91505092915050565b6000602082019050613b4760008301846137fe565b92915050565b60008060408385031215613b6457613b63613859565b5b6000613b728582860161398e565b9250506020613b8385828601613af0565b9150509250929050565b6000613b98826137cc565b9050919050565b613ba881613b8d565b8114613bb357600080fd5b50565b600081359050613bc581613b9f565b92915050565b600060208284031215613be157613be0613859565b5b6000613bef84828501613bb6565b91505092915050565b600080600060608486031215613c1157613c10613859565b5b6000613c1f8682870161398e565b9350506020613c308682870161398e565b9250506040613c4186828701613af0565b9150509250925092565b6000819050919050565b6000613c70613c6b613c66846137cc565b613c4b565b6137cc565b9050919050565b6000613c8282613c55565b9050919050565b6000613c9482613c77565b9050919050565b613ca481613c89565b82525050565b6000604082019050613cbf6000830185613c9b565b613ccc6020830184613817565b9392505050565b60008060408385031215613cea57613ce9613859565b5b6000613cf885828601613af0565b9250506020613d0985828601613af0565b9150509250929050565b6000602082019050613d286000830184613817565b92915050565b6000613d39826137ec565b9050919050565b613d4981613d2e565b8114613d5457600080fd5b50565b600081359050613d6681613d40565b92915050565b60008060408385031215613d8357613d82613859565b5b6000613d9185828601613d57565b9250506020613da28582860161398e565b9150509250929050565b60008060408385031215613dc357613dc2613859565b5b6000613dd185828601613d57565b9250506020613de285828601613af0565b9150509250929050565b600060208284031215613e0257613e01613859565b5b6000613e108482850161398e565b91505092915050565b60008060408385031215613e3057613e2f613859565b5b6000613e3e8582860161398e565b9250506020613e4f85828601613935565b9150509250929050565b600080fd5b600080fd5b7f4e487b7100000000000000000000000000000000000000000000000000000000600052604160045260246000fd5b613e9b82613a6d565b810181811067ffffffffffffffff82111715613eba57613eb9613e63565b5b80604052505050565b6000613ecd61384f565b9050613ed98282613e92565b919050565b600067ffffffffffffffff821115613ef957613ef8613e63565b5b613f0282613a6d565b9050602081019050919050565b82818337600083830152505050565b6000613f31613f2c84613ede565b613ec3565b905082815260208101848484011115613f4d57613f4c613e5e565b5b613f58848285613f0f565b509392505050565b600082601f830112613f7557613f74613e59565b5b8135613f85848260208601613f1e565b91505092915050565b60008060008060808587031215613fa857613fa7613859565b5b6000613fb68782880161398e565b9450506020613fc78782880161398e565b9350506040613fd887828801613af0565b925050606085013567ffffffffffffffff811115613ff957613ff861385e565b5b61400587828801613f60565b91505092959194509250565b60006020828403121561402757614026613859565b5b600061403584828501613d57565b91505092915050565b6000806040838503121561405557614054613859565b5b60006140638582860161398e565b92505060206140748582860161398e565b9150509250929050565b7f4e487b7100000000000000000000000000000000000000000000000000000000600052603260045260246000fd5b7f4e487b7100000000000000000000000000000000000000000000000000000000600052602260045260246000fd5b600060028204905060018216806140f457607f821691505b602082108103614107576141066140ad565b5b50919050565b7f4552433732313a20617070726f76616c20746f2063757272656e74206f776e6560008201527f7200000000000000000000000000000000000000000000000000000000000000602082015250565b6000614169602183613a32565b91506141748261410d565b604082019050919050565b600060208201905081810360008301526141988161415c565b9050919050565b7f4552433732313a20617070726f76652063616c6c6572206973206e6f7420746f60008201527f6b656e206f776e6572206f7220617070726f76656420666f7220616c6c000000602082015250565b60006141fb603d83613a32565b91506142068261419f565b604082019050919050565b6000602082019050818103600083015261422a816141ee565b9050919050565b7f546865206d696e742773206e6f7420617661696c61626c6520666f72206e6f7760008201527f2c2062652070617469656e74203b290000000000000000000000000000000000602082015250565b600061428d602f83613a32565b915061429882614231565b604082019050919050565b600060208201905081810360008301526142bc81614280565b9050919050565b7f5468697320746f6b656e2773206e6f7420616c6c6f7765642021210000000000600082015250565b60006142f9601b83613a32565b9150614304826142c3565b602082019050919050565b60006020820190508181036000830152614328816142ec565b9050919050565b7f4e6f7420656e6f7567682062616c616e636520746f20636f6d706c657465207460008201527f72616e73616374696f6e2e000000000000000000000000000000000000000000602082015250565b600061438b602b83613a32565b91506143968261432f565b604082019050919050565b600060208201905081810360008301526143ba8161437e565b9050919050565b60006060820190506143d660008301866137fe565b6143e360208301856137fe565b6143f06040830184613817565b949350505050565b6000815190506144078161391e565b92915050565b60006020828403121561442357614422613859565b5b6000614431848285016143f8565b91505092915050565b7f4e487b7100000000000000000000000000000000000000000000000000000000600052601160045260246000fd5b60006144748261380d565b915061447f8361380d565b92508282019050808211156144975761449661443a565b5b92915050565b7f5061796d656e7453706c69747465723a206163636f756e7420686173206e6f2060008201527f7368617265730000000000000000000000000000000000000000000000000000602082015250565b60006144f9602683613a32565b91506145048261449d565b604082019050919050565b60006020820190508181036000830152614528816144ec565b9050919050565b7f5061796d656e7453706c69747465723a206163636f756e74206973206e6f742060008201527f647565207061796d656e74000000000000000000000000000000000000000000602082015250565b600061458b602b83613a32565b91506145968261452f565b604082019050919050565b600060208201905081810360008301526145ba8161457e565b9050919050565b60006145cc82613c77565b9050919050565b6145dc816145c1565b82525050565b60006040820190506145f760008301856145d3565b6146046020830184613817565b9392505050565b7f4552433732313a2063616c6c6572206973206e6f7420746f6b656e206f776e6560008201527f72206f7220617070726f76656400000000000000000000000000000000000000602082015250565b6000614667602d83613a32565b91506146728261460b565b604082019050919050565b600060208201905081810360008301526146968161465a565b9050919050565b60006146a88261380d565b91507fffffffffffffffffffffffffffffffffffffffffffffffffffffffffffffffff82036146da576146d961443a565b5b600182019050919050565b60006146f08261380d565b91506146fb8361380d565b92508282026147098161380d565b915082820484148315176147205761471f61443a565b5b5092915050565b7f4e487b7100000000000000000000000000000000000000000000000000000000600052601260045260246000fd5b60006147618261380d565b915061476c8361380d565b92508261477c5761477b614727565b5b828204905092915050565b7f4552433732313a20696e76616c696420746f6b656e2049440000000000000000600082015250565b60006147bd601883613a32565b91506147c882614787565b602082019050919050565b600060208201905081810360008301526147ec816147b0565b9050919050565b7f4552433732313a2061646472657373207a65726f206973206e6f74206120766160008201527f6c6964206f776e65720000000000000000000000000000000000000000000000602082015250565b600061484f602983613a32565b915061485a826147f3565b604082019050919050565b6000602082019050818103600083015261487e81614842565b9050919050565b60008151905061489481613ad9565b92915050565b6000602082840312156148b0576148af613859565b5b60006148be84828501614885565b91505092915050565b7f4f776e61626c653a206e6577206f776e657220697320746865207a65726f206160008201527f6464726573730000000000000000000000000000000000000000000000000000602082015250565b6000614923602683613a32565b915061492e826148c7565b604082019050919050565b6000602082019050818103600083015261495281614916565b9050919050565b7f455243323938313a20726f79616c7479206665652077696c6c2065786365656460008201527f2073616c65507269636500000000000000000000000000000000000000000000602082015250565b60006149b5602a83613a32565b91506149c082614959565b604082019050919050565b600060208201905081810360008301526149e4816149a8565b9050919050565b7f455243323938313a20696e76616c696420726563656976657200000000000000600082015250565b6000614a21601983613a32565b9150614a2c826149eb565b602082019050919050565b60006020820190508181036000830152614a5081614a14565b9050919050565b7f416464726573733a20696e73756666696369656e742062616c616e6365000000600082015250565b6000614a8d601d83613a32565b9150614a9882614a57565b602082019050919050565b60006020820190508181036000830152614abc81614a80565b9050919050565b600081905092915050565b50565b6000614ade600083614ac3565b9150614ae982614ace565b600082019050919050565b6000614aff82614ad1565b9150819050919050565b7f416464726573733a20756e61626c6520746f2073656e642076616c75652c207260008201527f6563697069656e74206d61792068617665207265766572746564000000000000602082015250565b6000614b65603a83613a32565b9150614b7082614b09565b604082019050919050565b60006020820190508181036000830152614b9481614b58565b9050919050565b7f4552433732313a207472616e736665722066726f6d20696e636f72726563742060008201527f6f776e6572000000000000000000000000000000000000000000000000000000602082015250565b6000614bf7602583613a32565b9150614c0282614b9b565b604082019050919050565b60006020820190508181036000830152614c2681614bea565b9050919050565b7f4552433732313a207472616e7366657220746f20746865207a65726f2061646460008201527f7265737300000000000000000000000000000000000000000000000000000000602082015250565b6000614c89602483613a32565b9150614c9482614c2d565b604082019050919050565b60006020820190508181036000830152614cb881614c7c565b9050919050565b7f4f776e61626c653a2063616c6c6572206973206e6f7420746865206f776e6572600082015250565b6000614cf5602083613a32565b9150614d0082614cbf565b602082019050919050565b60006020820190508181036000830152614d2481614ce8565b9050919050565b7f4552433732313a20617070726f766520746f2063616c6c657200000000000000600082015250565b6000614d61601983613a32565b9150614d6c82614d2b565b602082019050919050565b60006020820190508181036000830152614d9081614d54565b9050919050565b6000614da28261380d565b9150614dad8361380d565b9250828203905081811115614dc557614dc461443a565b5b92915050565b7f4552433732313a207472616e7366657220746f206e6f6e20455243373231526560008201527f63656976657220696d706c656d656e7465720000000000000000000000000000602082015250565b6000614e27603283613a32565b9150614e3282614dcb565b604082019050919050565b60006020820190508181036000830152614e5681614e1a565b9050919050565b7f5361666545524332303a204552433230206f7065726174696f6e20646964206e60008201527f6f74207375636365656400000000000000000000000000000000000000000000602082015250565b6000614eb9602a83613a32565b9150614ec482614e5d565b604082019050919050565b60006020820190508181036000830152614ee881614eac565b9050919050565b600081519050919050565b600082825260208201905092915050565b6000614f1682614eef565b614f208185614efa565b9350614f30818560208601613a43565b614f3981613a6d565b840191505092915050565b6000608082019050614f5960008301876137fe565b614f6660208301866137fe565b614f736040830185613817565b8181036060830152614f858184614f0b565b905095945050505050565b600081519050614f9f8161388f565b92915050565b600060208284031215614fbb57614fba613859565b5b6000614fc984828501614f90565b91505092915050565b7f4552433732313a206d696e7420746f20746865207a65726f2061646472657373600082015250565b6000615008602083613a32565b915061501382614fd2565b602082019050919050565b6000602082019050818103600083015261503781614ffb565b9050919050565b7f4552433732313a20746f6b656e20616c7265616479206d696e74656400000000600082015250565b6000615074601c83613a32565b915061507f8261503e565b602082019050919050565b600060208201905081810360008301526150a381615067565b9050919050565b7f416464726573733a20696e73756666696369656e742062616c616e636520666f60008201527f722063616c6c0000000000000000000000000000000000000000000000000000602082015250565b6000615106602683613a32565b9150615111826150aa565b604082019050919050565b60006020820190508181036000830152615135816150f9565b9050919050565b600061514782614eef565b6151518185614ac3565b9350615161818560208601613a43565b80840191505092915050565b6000615179828461513c565b915081905092915050565b7f416464726573733a2063616c6c20746f206e6f6e2d636f6e7472616374000000600082015250565b60006151ba601d83613a32565b91506151c582615184565b602082019050919050565b600060208201905081810360008301526151e9816151ad565b905091905056fe697066733a2f2f6261666b7265696678616179716132617a77747961696c796a3533616c746f34796c63736677706d3535787a776d707879757277686e6f62686e71697066733a2f2f6261666b7265696571356934787074727568626570736636686d333776656264717a6d6b6964743333347a6162633432326b6f6778666567773475697066733a2f2f6261666b72656964696d6977636c736e78636c3232736579356c6e66716a793570376632756374783362746e377a73747a6b75693268326a796d69697066733a2f2f6261666b726569616763667235657a753635686e7935747965696c7074726776677a64683733706474796f7676616a6a3671767566746c6d6b646d697066733a2f2f6261666b726569643276666532726d7870736d366f7470677576727833756b37636a663633616e37357969666d346c6e366369377a786a7a69726da26469706673582212200f2ed8ca521ccd506c59bf83c1f2b3e76cfd474b85f145408aaf0bd5b95ed2d564736f6c63430008110033",
  "linkReferences": {},
  "deployedLinkReferences": {}
}